:020000040800F2
:10000000706800200D020008A72900085725000885
:10001000A52900081B0300089F3B00080000000002
:100020000000000000000000000000004335000850
:100030001D03000800000000AB290008453500083A
:1000400027020008270200082702000827020008EC
:1000500027020008270200082702000827020008DC
:1000600027020008270200082702000827020008CC
:1000700027020008270200082702000827020008BC
:1000800027020008270200082702000827020008AC
:10009000270200082702000827020008270200089C
:1000A000270200082702000827020008270200088C
:1000B000270200082702000827020008270200087C
:1000C0002702000827020008270200081935000847
:1000D000253500082702000827020008270200082B
:1000E000270200082702000827020008270200084C
:1000F00027020008753600082702000827020008BA
:10010000270200082702000827020008270200082B
:1001100049370008270200082702000827020008C4
:10012000270200082702000827020008270200080B
:1001300027020008270200082702000827020008FB
:1001400027020008270200082702000827020008EB
:1001500027020008270200082702000827020008DB
:1001600027020008270200082702000827020008CB
:1001700027020008270200082702000800000000EC
:1001800027020008270200082702000827020008AB
:10019000270200082702000827020008270200089B
:1001A00000000000000000002702000827020008ED
:1001B000270200082702000827020008270200087B
:1001C000270200082702000800000000270200089C
:1001D000270200082702000827020008270200085B
:1001E000270200082702000827020008270200084B
:1001F0000000000027020008DFF80CD000F05CF8D7
:1002000000480047CD460008706800200648804737
:1002100006480047FEE7FEE7FEE7FEE7FEE7FEE7EB
:10022000FEE7FEE7FEE7FEE715360008F9010008E5
:1002300040EA01039B0703D009E008C9121F08C068
:10024000042AFAD203E011F8013B00F8013B521EE8
:10025000F9D270472DE9F05F0546002092469B4693
:1002600088460646814640241BE0284641464746CC
:10027000224600F042F853465A46C01A914110D324
:1002800011461846224600F029F82D1A67EB01089E
:100290004F4622460120002100F020F817EB00090C
:1002A0004E41201EA4F10104DFDC484631462A46B7
:1002B0004346BDE8F09F0000064C074D06E0E068AD
:1002C00040F0010394E8070098471034AC42F6D39D
:1002D000FFF796FFD04E0008F04E0008202A04DBFE
:1002E000203A00FA02F1002070479140C2F1200349
:1002F00020FA03F3194390407047202A04DB203A88
:1003000021FA02F00021704721FA02F3D040C2F135
:1003100020029140084319467047FEE7704770B4C9
:10032000D1E9006CD1E90243D1E90425012E43EA69
:1003300002064CEA040C8C69D1E907324CEA060645
:10034000D1F824C046EA050141EA040109D00B4373
:1003500001681A4342EA0C026FF30E011143016077
:100360000CE005684468134325F4F8424CEA0202A5
:100370001A4302606FF30E042143416070BC0020F9
:100380007047426942EA4101416100207047F8B577
:1003900015460446D1E9002388686FF01F0CC96830
:1003A0001A430CEB401040EA4120104300902061BA
:1003B00000F0AAF90646A06910F0200F0ED0B5F1A2
:1003C000FF3F07D025B100F09FF9801BA84201D95B
:1003D0000320F8BDA06910F0200FF0D10020F8BD77
:1003E0002DE9F0036FF00F058B68D1E9006C2C014B
:1003F000761E27044FEA04294FEA043805EB0C1552
:10040000B1F810C035430E7E04EB03248B8A2543DC
:10041000C96809EB0C4408EB035C012A07EB06638F
:100420000ED082683E1306EB01310D4302F070419D
:1004300045EA040242EA0C021A431143816013E0C8
:100440000E038168C2682543A6F5805421F47041EB
:100450002B4321F4700144EA0C0C02F070421A4361
:100460004CEA01018160C2600020BDE8F0037047E2
:1004700090F83510022903D0802141650120704792
:10048000052180F835100068016821F00101016044
:100490000020704731B500F037F9044600F034F918
:1004A0000099001B8842F9D338BD00002DE9F84FB0
:1004B0008D4E002201274FF003094FF00F0800BFB7
:1004C0000B6807FA02FC03EA0C03634540F006815F
:1004D0004C68022C18BF122C12D1D408D1F810B0DD
:1004E0004FEA427A00EB8404256A4FEADA6A08FA96
:1004F0000AFE0BFA0AFA25EA0E054AEA0505256204
:1005000091F804B05400D0F800A00BF0030B09FAE6
:1005100004F50BFA04FB2AEA050A4BEA0A0AC0F8BA
:1005200000A0D1F804A0BAF1010F18BFBAF1020F70
:1005300005D0BAF1110F18BFBAF1120F19D1D0F8C6
:1005400008A0D1F80CB02AEA050A0BFA04FB4BEA22
:100550000A0AC0F808A0D0F804A091F804B02AEA6A
:100560000C0CCBF3001B0BFA02FA4AEA0C0CC0F895
:1005700004C0D0F80CC0D1F808A02CEA050C0AFA87
:1005800004F444EA0C0CC0F80CC0D1F804C01CF010
:10059000805F7CD0356822F0030C940745F48045D9
:1005A0003560240F35680CF1804C0CF5983C05F44F
:1005B0008045009508FA04FADCF80858A0F1804B51
:1005C000BBF5003B25EA0A0508BF4FF0000A48D0FA
:1005D000A0F1804ABAF5013A08BF4FF0010A40D0B5
:1005E000A0F1804ABAF5023A08BF4FF0020A38D0AB
:1005F000A0F1804ABAF5033A08BF4FF0030A30D0A1
:10060000A0F1804ABAF5043A08BF4FF0040A28D096
:10061000A0F1804ABAF5053A08BF4FF0050A20D08C
:10062000A0F1804ABAF5063A08BF4FF0060A18D082
:10063000A0F1804ABAF5073A08BF4FF0070A10D078
:10064000A0F1804ABAF5083A08BF4FF0080A08D06E
:10065000A0F1804ABAF5093A0CBF4FF0090A4FF0F1
:100660000A0A0AFA04FA214C4AEA0505CCF80858A5
:100670004D68D4F800C015F4803F2CEA030C18BF75
:100680004CEA030C1A4DC4F800C04C6800E025E0A9
:10069000D5F800C014F4003F2CEA030C18BF4CEA54
:1006A000030CDFF850A0C5F800C04C68DAF800C0B1
:1006B00014F4801F2CEA030C18BF4CEA030C0E4CF8
:1006C000CAF800C04D68D4F800C015F4001F2CEA29
:1006D000030C18BF4CEA030CC4F800C0521C102ACB
:1006E000FFF4EEAEBDE8F88F44380240003C014014
:1006F000043C0140083C01400C3C0140002A08BF7A
:1007000009048161704700000148006870470000DB
:1007100008000020002804BF0120704710B50446DF
:1007200090F8690028B9002084F86800204601F09C
:100730005FFE242084F869002068016821F001012F
:100740000160204603F0A0F8012808BF10BD606AD0
:1007500000281CBF204602F0FDFF2068416821F4FC
:10076000904141602068816821F022018160206809
:10077000816841F0080181602068016841F0010151
:1007800001602046BDE8104003F051B8074981B030
:100790000A6842F480420A60096801F480410091CD
:1007A00003490A681043086001B0704744380240AA
:1007B0000438014002480168491C0160704700008C
:1007C00008000020074810B5016841F4007101607D
:1007D000032000F085F8002000F006F800F018F87B
:1007E000002010BD003C0240084A10B504464FF4FA
:1007F0007A701268B2FBF0F001F09EFB00222146F5
:10080000501E00F03DF8002010BD00000C0000203C
:10081000032010B500F064F800226FF00B001146C1
:1008200000F02EF800226FF00A00114600F028F8C0
:1008300000226FF00900114600F022F80022501F3C
:10084000114600F01DF80022101F114600F018F8A4
:100850000022901E114600F013F80022BDE810405F
:10086000501E114600F00CB8410900F01F008A002C
:10087000012102F1E02201FA00F0C2F80001704704
:10088000164B30B41B68C3F30223C3F1070CBCF151
:10089000040F88BF4FF0040C1C1D072C34BF00232D
:1008A000DB1E012404FA0CFC04FA03F5ACF101048C
:1008B0002140A5F1010C99400CEA020211430028E5
:1008C0004FEA0111B8BF00F00F0000F1E020B4BF03
:1008D00080F8141D80F8001430BC70470CED00E067
:1008E000074900F007004FF6FF030A681A4042EA82
:1008F000002040F0FD7040F080600860704700000C
:100900000CED00E01C4838B5016841F080510160F1
:1009100000681A4D00F080500090286840F4803044
:100920002860FFF7F1FE0446686810F4803F09D1A3
:10093000FFF7EAFE001BB0F57A7F15D8686810F45F
:10094000803FF5D0286840F400302860FFF7DCFED7
:100950000446686810F4003F0CD100BFFFF7D4FED6
:10096000001BB0F57A7F01D9032038BD686810F408
:10097000003FF3D0002038BD4038024000700040F6
:100980002DE9F84F16468A460446FFF7BDFE83461A
:1009900094F84000012804BF0220BDE8F88F012729
:1009A0004FF0000884F8407094F84100012818BF07
:1009B000022504D084F840802846BDE8F88F4FF027
:1009C0000209C4F8448084F84190002220215B464B
:1009D0002046009602F060FC0500EBD10022514653
:1009E000204602F023F8DAF82400002818BF84F823
:1009F0004170DFD101225B4602212046009602F0C1
:100A00004BFC0500D6D12068C0F80C9084F84170EA
:100A1000D0E700002DE9F8430446FFF775FE002CEF
:100A2000074604BF0120BDE8F88394F84000012880
:100A300004BF0220BDE8F8830126002584F8406049
:100A400094F8410038B984F84050204600F048F846
:100A500041F28830A06420686FF0FF03A26801684B
:100A600003EB022221F4F85111430160A06C002233
:100A700020213B460090204602F00EFC50BB21682E
:100A8000D4E907C32779E268D1F8008042EA0C0C68
:100A9000124A43EA07634CEA030328F0D00C2CF017
:100AA0007F4C43EA0C030B602168D4E9053C278A9C
:100AB000D1F8048043EA0C0308EA020242EA074242
:100AC0001A434A6021680A6842F001020A606564BC
:100AD00084F8416084F84050BDE8F883FEF8E0FFF8
:100AE0002DE9F041006886B0184988421CBF06B065
:100AF000BDE8F0811648016841F00201016000681C
:100B000002240025DFF84C8000F002000590032647
:100B1000694609274FF498608DE8F1004046FFF7D9
:100B2000C5FC0A2102953002CDE90361CDE900043C
:100B300069464046FFF7BAFC600269468DE8F1005D
:100B40000548FFF7B3FC06B0BDE8F081001000A037
:100B50003838024000140240000402402DE9F84FEA
:100B600015468A460446FFF7CFFD81462068816915
:100B700094F8402000F12006012A04BF0220BDE8BD
:100B8000F88F01274FF0000884F8407094F8412056
:100B9000012A18BF022003D084F84080BDE8F88FF6
:100BA000BAF1000FC4F8448035D0222284F84120E5
:100BB0000269521CA2630269521C6263C4F830A02D
:100BC000426922F0406242F08062426120688161A5
:100BD000A06B90B101224B4606212046009502F001
:100BE0005BFBA8B93178206B421C22630170A06BBB
:100BF000401EA063A06B0028ECD101224B460221CD
:100C00002046009502F048FB10B922680221D1600D
:100C100084F84170C0E7616C012041F00801616413
:100C2000BAE700002DE9F84F15468A460446FFF75B
:100C30006BFD94F8401081462068012900F12006E0
:100C400004BF0220BDE8F88F01274FF0000884F8A8
:100C5000407094F84110012918BF022004D000BF51
:100C600084F84080BDE8F88FBAF1000FC4F84480E2
:100C700031D0122184F841100169491CE1620169F7
:100C8000491CA162C4F824A0416921F0406141617E
:100C9000E06A90B101224B4604212046009502F003
:100CA000FBFAA8B9606A411C616200783070E06AA2
:100CB000401EE062E06A0028ECD101224B4602218E
:100CC0002046009502F0E8FA10B922680221D160AE
:100CD00084F84170C4E7616C012041F0080161644F
:100CE000BEE700002DE9F84F04460078DFF82494B1
:100CF0004FF0000710F0010FBA460FD0D9F80000EE
:100D000020F40000C9F80000D9F80000616B084326
:100D1000C9F80000606B002808BF0127FE4D20685D
:100D200010F4002F0FD0E06B296821F44011084324
:100D30002860E06BB0F5801F08BF012703D00028B2
:100D400008BF4FF0010A206810F4801F0FD0206CFC
:100D5000296821F4400108432860206CB0F5800F19
:100D600008BF012703D0002808BF4FF0010A206800
:100D700010F0807F18BF012710F0200F66D0E748E1
:100D8000016841F0805101600068DFF8948300F051
:100D900080500090D8F8000040F48070C8F800003F
:100DA000FFF7B2FC0646D8F8000010F4807F0AD1A5
:100DB000FFF7AAFC801B642800F21583D8F8000016
:100DC00010F4807FF4D0D74E306810F440702AD0F1
:100DD000218E01F44071814225D03168306821F4C0
:100DE000407140F480303060306820F480303060F2
:100DF0003160306810F0010F15D0FFF785FC804698
:100E0000306810F0020F08BF41F2883B0BD100BFE1
:100E1000FFF77AFCA0EB0800584500F2E482306846
:100E200010F0020FF4D0206B4FF4407181431CBFCF
:100E3000D9F8000020F4F81000F0EE80C9F80000A6
:100E4000208E3168C0F30B0008433060207810F02A
:100E5000100F07D0286820F0807028602868A16BE8
:100E6000084328602188B04811F4804F05D0616E96
:100E7000026822F4403211430160218811F4004FCE
:100E800005D0A16E026822F440221143016021685E
:100E900011F4803F05D0E16E026822F44012114344
:100EA0000160216811F4003F05D0216F026822F42F
:100EB000400211430160217811F0400F05D0616CB0
:100EC000026822F0030211430160217811F0800FC3
:100ED00005D0A16C026822F00C0211430160218848
:100EE00011F4807F05D0E16C026822F030021143DA
:100EF0000160218811F4007F05D0216D026822F085
:100F0000C00211430160218811F4806F05D0616D2A
:100F1000026822F4407211430160218811F4006FCD
:100F200005D0A16D026822F440621143016021885E
:100F300011F4805F05D0E16D026822F44052114344
:100F40000160218811F4005F05D0216E026822F44F
:100F5000404211430160216811F4800F05D0A16F58
:100F6000026822F0806211430160216811F4001FC1
:100F70000BD0E16F026822F0006211430160E16F63
:100F8000B1F1006F08BF4FF0010A216811F4802F02
:100F900005D0616F026822F0407211430160216840
:100FA00011F4000F06D0D4F88010026822F08052AD
:100FB00011430160216811F0806F06D0D4F88410CD
:100FC000026822F0005211430160206810F0006FA7
:100FD00006D0D4F88800296821F000710843286001
:100FE000206810F0805F06D0D4F88C00296821F0CA
:100FF000806108432860012F47F6C0794FF44037DD
:101000004FF070684FF0E0461CBF2068B0F1007FE1
:101010000CD000F02EB900BFD9F8001020F44070B9
:1010200020F0704021F4F811084307E73F480168B9
:1010300021F080610160FFF767FB83463B48006851
:1010400010F0006F0CD000BFFFF75EFBA0EB0B00B1
:10105000642800F2C8813548006810F0006FF3D1B1
:10106000207810F0010F34D0606B90BB304A1068CC
:1010700097FAA7F1126898FAA8F300F44030D4F870
:1010800004C0B1FA81F199FAA9FBC84002F070617D
:10109000B3FA83F297FAA7FEBBFA8BF3BEFA8EFB84
:1010A000D14098FAA8FE0CFA03F2BEFA8EF3D4F8F7
:1010B00008C000FA0BF096FAA6FEDFF874B01043F1
:1010C0009940BEFA8EF201430CFA02F00843CBF8C5
:1010D0000000206810F4002F03D0E16BB1F5801FF1
:1010E00006D010F4801F4DD0206CB0F5800F49D190
:1010F0000F49086897FAA7F2096800F44030B2FA7D
:1011000082F297FAA7FCD04099FAA9FB98FAA8F2C4
:1011100010E00000083802408C380240403802409D
:1011200000700040703802409038024000380240A1
:10113000843802406368BCFA8CFCB2FA82FEBBFAC7
:101140008BFB96FAA6F200FA0CF003FA0BF301F00F
:10115000E041D4F80CB0B2FA82F296FAA6FCD14083
:101160000343A648BCFA8CFC0BFA0EF21A4301FAB0
:101170000CF1114301602868616A20F01F00491ECC
:1011800008432860206810F0807F33D09B4A1068A5
:1011900098FAA8F1126897FAA7FB00F07060B1FA0C
:1011A00081F199FAA9FCC8400090BBFA8BFB216938
:1011B000BCFA8CFC606896FAA6F302F0E04201FAF1
:1011C0000BF100FA0CF098FAA8FB40EA010E009827
:1011D000B3FA83F38949BBFA8BFC96FAA6FBDA4093
:1011E00000FA0CF3BBFA8BF04EEA030302FA00F0AC
:1011F00018430860206810F0007F22D099FAA9F106
:10120000636897FAA7F0B1FA81FCD4E9031BB0FA3E
:1012100080F298FAA8F003FA0CFE0BFA02F2B0FA88
:1012200080F0764B96FAA6FBD4F808C001FA00F0DD
:10123000BBFA8BF14EEA020210430CFA01F10843AB
:1012400018606F48016841F080610160FFF75CFA47
:1012500083466B48006810F0006F0AD1FFF754FA1C
:10126000A0EB0B0064287CD86548006810F0006F84
:10127000F4D0BAF1000F75D0DFF884B1DBF80000CC
:1012800020F08050CBF80000FFF73EFA8246DBF8F2
:10129000000010F0005F18BFDFF864B10BD000BF92
:1012A000FFF732FAA0EB0A0064285AD8DBF80000F6
:1012B00010F0005FF4D12068DFF848E110F4002F4F
:1012C00001D0E16B21B110F4801F3DD0206CD8BB60
:1012D000DEF8000097FAA7F1B1FA81F2DEF800100B
:1012E00000F44030636997FAA7FCD04098FAA8F25E
:1012F00099FAA9FAB2FA82FBBCFA8CFC96FAA6F229
:10130000BAFA8AFA00FA0CF003FA0AF301F0E041A3
:10131000D4F818A0B2FA82F296FAA6FCD14018438B
:101320000AFA0BF3BCFA8CF2034301FA02F01843F9
:10133000CEF800006FF0FF0C2868A16A20F4F85086
:101340000CEB012108432860206810F4001F38D0FE
:10135000E06FB0F1006F34D1DEF8000098FAA8F128
:1013600001E040E046E0DEF8003096FAA6F200F038
:101370007060B1FA81F1B2FA82F597FAA7F2C8402B
:1013800099FAA9FC216AB2FA82F76269BCFA8CFC6C
:10139000B94002FA0CF798FAA8F403F0E04CB4FA5A
:1013A00084F296FAA6F300FA02F247EA01042CFA54
:1013B00005F1B3FA83F0224301FA00F01043CEF8AE
:1013C00000000F4D286840F080502860FFF79CF91E
:1013D0000446286810F0005F0CD100BFFFF794F9B5
:1013E000001B642802D90320BDE8F88F286810F09C
:1013F000005FF3D00020BDE8F88F00008438024081
:101400000038024088380240704700002DE9F0475C
:10141000DFF8E48106460F46D8F8000000F00F0020
:10142000B8420CD2D8F8000020F00F003843C8F8BA
:101430000000D8F8000000F00F00B84272D13078F8
:101440006E4D10F0020F05D0B068296821F0F00150
:1014500008432860307810F0010F50D07068684958
:10146000012821D00968022823D011F0020F59D099
:10147000296821F0030108432860FFF745F9044675
:10148000706841F28839012817D00228286800F0D6
:101490000C0022D000B300BFFFF736F9001B48450F
:1014A00029D90320BDE8F087096811F4003FDFD196
:1014B00038E011F0007FDBD134E0286800F00C0048
:1014C00004281CD0FFF720F9001B4845E9D82868FC
:1014D00000F00C000428F5D111E008280FD000BF5F
:1014E000FFF712F9001B4845DBD8286800F00C0014
:1014F0000828F5D103E0286810F00C0FCCD1D8F8FB
:10150000000000F00F00B8420FD9D8F8000020F01A
:101510000F003843C8F80000D8F8000000F00F00B2
:10152000B84202D00120BDE8F087307810F0040FF7
:1015300005D0F068296821F4E0510843286030782C
:1015400010F0080F06D03069296821F4604141EAA3
:10155000C00028602B48296811F00C0138D04310D6
:10156000042908BF184633D0082931D1264947F647
:10157000C07C0A680C6802F03F0214F4800F0CD0A3
:101580000868B3FBF2F29CFAACF300EA0C00B3FA81
:1015900083F3D84002FB00F20CE00B68B0FBF2F0E2
:1015A0009CFAACF203EA0C03B2FA82F223FA02F2DA
:1015B00000FB02F208684FF4403393FAA3F100F401
:1015C0004030B1FA81F1C840401C4000B2FBF0F05D
:1015D0002968F02292FAA2F201F0F001B2FA82F246
:1015E000D1400A4A515CC840094908600020FFF711
:1015F000FBF80020BDE8F087003C024008380240BC
:10160000003802400024F40004380240904D0008E5
:101610000C0000200248016841F40021016070477D
:101620000038024001480068704700000C000020AC
:1016300008484FF4E052016892FAA2F2064801F419
:10164000E051B2FA82F2D140044A0068515CC840CD
:1016500070470000083802400C000020A04D000830
:1016600008484FF46042016892FAA2F2064801F479
:101670006041B2FA82F2D140044A0068515CC8402D
:1016800070470000083802400C000020A04D000800
:1016900021492248096811F00C0108BF7047204B0E
:1016A000042904BF18467047082918BF70474DF831
:1016B000044D47F6C0711B4AD2F800C014680CF004
:1016C0003F0C14F4800F0BD01068B3FBFCF391FABD
:1016D000A1FC0840BCFA8CF1C84003FB00F00AE012
:1016E0001368B0FBFCF091FAA1FC1940BCFA8CF332
:1016F000D94000FB01F011684FF440335DF8044B12
:1017000093FAA3F201F44031B2FA82F2D140491CBB
:101710004900B0FBF1F07047083802400024F400A3
:1017200000127A00043802400648006810F0800F6A
:1017300008BF704710B5FFF767FE034980200870A7
:1017400010BD00000C3802400E3802402DE9F84F61
:1017500004460078DFF8E0934FF0000BF74D10F0EF
:10176000010F5BD0D9F8000000F00C0004280AD06B
:10177000D9F8000000F00C0008280DD1281D0068E1
:1017800010F4800F08D0286810F4003F46D060683D
:10179000002800F0DF8141E06068B0F5803F04BFC1
:1017A000286840F480300AD010B1B0F5A02F11D0D5
:1017B000286820F480302860286820F48020286081
:1017C0006068D0B1FEF7A0FF0646286810F4003F1D
:1017D00008D023E0286840F480202860286840F47E
:1017E0008030ECE7FEF790FF801B642800F23F8119
:1017F000286810F4003FF5D010E0FEF785FF06469C
:10180000286810F4003F09D0FEF77EFF801B642893
:1018100000F22D81286810F4003FF5D1207810F0F7
:10182000020F5CD0D9F80000F82710F00C0F19D087
:10183000D9F8000000F00C00082804D1C048006866
:1018400010F4800F0ED0E0680028286833D040F0F4
:1018500001002860FEF758FF0646286810F0020FC6
:1018600014D01CE0286810F0020F1CBFE0680128AB
:1018700040F070812069296897FAA7F2B2FA82F2E3
:1018800000FA02F221F0F800104312E0FEF73CFFEC
:10189000801B02287CD8286810F0020FF6D021693E
:1018A000286897FAA7F2B2FA82F220F0F800914085
:1018B0000843286013E020F001002860FEF724FFB1
:1018C0000646286810F0020F09D000BFFEF71CFF83
:1018D000801B02285CD8286810F0020FF6D120780F
:1018E00010F0080F2BD0974E60690028306813D095
:1018F00040F001003060FEF707FF0746306810F047
:10190000020F1CD1FEF700FFC01B022840D8306830
:1019100010F0020FF6D012E020F001003060FEF768
:10192000F3FE0746306810F0020F08D0FEF7ECFE19
:10193000C01B02282CD8306810F0020FF6D1207896
:1019400010F0040F78D0DFF80082D8F8000010F013
:10195000805F0CD1D8F8000040F08050C8F800003B
:10196000D8F800004FF0010B00F080500090774F46
:10197000386810F4807F15D1386840F48070386082
:10198000FEF7C2FE0646386810F4807F0AD100E0F8
:101990006DE0FEF7B9FE801B642868D8386810F443
:1019A000807FF4D0A0686A4E012804BF306840F000
:1019B000010009D008B1052813D0306820F00100DB
:1019C0003060306820F004003060A06841F2883A4E
:1019D000C8B1FEF799FE0746306810F0020F08D034
:1019E00021E0306840F004003060306840F00100D1
:1019F000EAE7FEF789FEC01B504538D8306810F082
:101A0000020FF6D00FE0FEF77FFE0746306810F0B9
:101A1000020F08D0FEF778FEC01B504527D830686B
:101A200010F0020FF6D1BBF1000F05D0D8F800007E
:101A300020F08050C8F80000A069E8B3D9F8001081
:101A400001F00C0108296FD00228286820F080706E
:101A500028600FD0FEF758FE0446286810F0007F7B
:101A600067D000BFFEF750FE001B02285DD903209F
:101A7000BDE8F88FFEF748FE0646286810F0007FA4
:101A800009D000BFFEF740FE801B0228EFD828686F
:101A900010F0007FF6D1D4E9096247F6C0704FF428
:101AA000403390FAA0F14FF0FF3000EB520893FA68
:101AB000A3F3B1FA81F000E03BE006FA00F1D4E9CB
:101AC00007C9B3FA83F24FF0706A08FA02F39AFA80
:101AD000AAF20B43D4E90B744FF0E0464CEA09003C
:101AE000B2FA82F196FAA6FC1843154B07FA01F2F6
:101AF000BCFA8CF1104304FA01F10843186028681D
:101B000040F080702860FEF7FFFD0446286810F062
:101B1000007F0ED1FEF7F8FD001B0228A7D8286829
:101B200010F0007FF6D004E014E0286810F0007F89
:101B300098D10020BDE8F88F0838024000380240F4
:101B400004380240743802404038024000700040BF
:101B5000703802400120EDE7002804BF01207047E3
:101B600070B5044690F82C000D4628B9002084F882
:101B70002D00204600F012F8022084F82C00206886
:101B8000211DFEF7CCFBD4E900022946FEF728FC14
:101B9000012084F82C00002070BD00002248F0B520
:101BA000016887B000291CBF07B0F0BD01210160AA
:101BB0001E48016841F0010101600068022400250F
:101BC000694600F00100059003264FF63F000C2700
:101BD0008DE8F1001648FEF769FC2C2069468DE877
:101BE000F1001448FEF762FC48F2371069468DE8B0
:101BF000F1001148FEF75AFC4FF683706946CDE9B3
:101C000000040E48CDE902560497FEF74FFC4CF253
:101C100003706946CDE900040948CDE902560497EE
:101C2000FEF744FC07B0F0BD000000203838024049
:101C300000140240001C0240001802400010024044
:101C4000000C024010B5044690F82C00022808BF92
:101C500010BD022084F82C002068FEF792FB0120C2
:101C600084F82C00002010BD70B5044690F82C00BC
:101C70000D46022808BF70BD022084F82C002068A1
:101C8000FEF785FB286802280CBF0520012084F898
:101C90002C00002070BD704738B5044600684268CB
:101CA000816811F0400F0BD111F0010F18BF12F035
:101CB000400F05D0E16C01B02046BDE83040084738
:101CC00011F0020F18BF12F0800F05D0216D01B086
:101CD0002046BDE83040084711F4B07F14BF12F031
:101CE000200F38BD11F0400F0AD094F85D30032B5F
:101CF00043D0236E43F004032366C36883680093D4
:101D000011F0200F09D0236E43F00103236683688E
:101D10000093036823F04003036011F4807F06D032
:101D2000206E40F008002066206880680090206ED9
:101D3000002808BF38BD12F0030F4FF001012068E2
:101D4000426822F0E002426084F85D1019D02068F9
:101D50000E4D416821F003014160A06D18B1056589
:101D6000A06DFEF785FB606D002808BF38BD0565D6
:101D7000606DBDE83840FEF77BBBC16880680090AD
:101D800038BD2046FFF787FF38BD00003135000819
:101D9000002804BF012070472DE9F047044690F861
:101DA0005D000025A56220B9204684F85C5000F053
:101DB00059F8022284F85D202068016821F0400172
:101DC0000160E068B0F5E06F8CBF00214FF48051F6
:101DD000B0F5706F1CBFB0F5E06FA5620123D4F8B9
:101DE00030C0BCF1000F36D0D4E9010CD4E9042690
:101DF000B4F8188040EA0C09D4F828C0324349EA04
:101E00000209D4E9077008F40076D4F8008049EAA2
:101E1000060604223E43304340EA0C00C8F80000A6
:101E2000A069D4F824C0676BD4F80C8002EA104093
:101E300026684CEA070248EA000010430843706035
:101E40002068C16921F40061C161256684F85D30B4
:101E50000020BDE8F087B0F5E06F8CBF22632363FC
:101E6000C2E70000F0B5006800250224032605271C
:101E7000A0F18041B1F5983187B024D011F57841B7
:101E80001CBF07B0F0BD2048016841F480410160EB
:101E900000686946CDE9025600F4804005904FF491
:101EA00040500497CDE900041848FEF7FFFA0C20D3
:101EB0006946CDE900041648CDE902560497FEF7BD
:101EC000F5FA07B0F0BD1348016841F48051016094
:101ED00000686946CDE9025600F4805005908020E4
:101EE0000497CDE900040C48FEF7E0FA4FF4606077
:101EF0006946CDE900040948CDE902560497FEF78A
:101F0000D5FA07B0F0BD000040380240000402409E
:101F10000020024044380240000C024000180240F9
:101F200004284FF0E02001690CBF41F0040121F0CA
:101F30000401016170477047401EB0F1807F24BFEB
:101F4000012070474FF0E0214861F020034A82F8F9
:101F5000140D0020072288610A6170470FE000E03D
:101F600010B5FFF7E8FF10BD70477047002804BFA9
:101F70000120704710B5044690F83D0028B90020B4
:101F800084F83C00204600F00DF8022084F83D0063
:101F90002068211D01F074FB012084F83D00002021
:101FA00010BD0000006881B0A0F18041B1F5005182
:101FB0001CBF01B070470548016841F480710160A1
:101FC000006800F48070009001B070474038024013
:101FD000704770B5044600680025016911F0020FD2
:101FE0001CBFC16811F0020F13D001216FF0020273
:101FF000026121772068806910F0030F204602D02B
:10200000FFF7E6FF04E000F0A6F8204600F0A4F891
:1020100025772068016911F0040F1CBFC16811F019
:10202000040F13D002216FF00402026121772068AF
:10203000806910F4407F204602D0FFF7C9FF04E01A
:1020400000F089F8204600F087F8257720680169BC
:1020500011F0080F1CBFC16811F0080F13D0042144
:102060006FF00802026121772068C06910F0030F49
:10207000204602D0FFF7ACFF04E000F06CF82046E9
:1020800000F06AF825772068016911F0100F1CBF75
:10209000C16811F0100F13D008216FF01002026117
:1020A00021772068C06910F4407F204602D0FFF7F6
:1020B0008FFF04E000F04FF8204600F04DF8257740
:1020C0002068016911F0010F1CBFC16811F0010FF8
:1020D00005D06FF001010161204600F03EF8206854
:1020E0006FF08005016911F0800F1CBFC16811F00D
:1020F000800F03D005612046FFF736FF2068016995
:1021000011F4807F1CBFC16811F0800F03D00561FE
:102110002046FFF729FF2068016911F0400F1CBF1E
:10212000C16811F0400F05D06FF0400101612046F9
:1021300000F014F82068016911F0200F1ABFC1687F
:1021400011F0200F70BD6FF0200101612046BDE845
:102150007040FFF70ABF704770477047704770477D
:1021600070B5016804462025C8690A688B6810F0BC
:102170000F0F57D003F0010C02F490765CEA0606CC
:1021800000F0F08010F0010F18BF12F4807F05D02E
:1021900001260E62E16E41F00101E16610F0020FCE
:1021A00018BF13F0010F06D0266802213162E16EDC
:1021B00041F00401E16610F0040F18BF13F0010FA5
:1021C00006D0236804211962E16E41F00201E16644
:1021D00010F0080F1CBF02F0200151EA0C0106D0DC
:1021E000236808211962E16E41F00801E166E16EA1
:1021F000002908BF70BD10F0200F18BF12F0200F8B
:102200000BD094F86A202046B4F85C10222A46D0FD
:102210002068816941F008018161E06E10F0080FCB
:1022200070D16AE010F0200F18BF12F0200F7CD0A0
:1022300094F86A302046B4F85C20222B04D08869D8
:1022400040F00800886170BD8368B3F5805F04BF0B
:102250000369002B4B6A416D03EA02021AD04B1C42
:1022600043650A70B0F85A10491E0904090CA0F819
:102270005A1018BF70BD01680A6822F490720A6093
:1022800001688A6822F001028A6080F86A5000F0D2
:10229000D9F870BD0A80416D891C4165E2E782680A
:1022A000B2F5805F04BF0269002A0368426D5B6A71
:1022B0001DD002F1010CC0F854C0194082F8001082
:1022C000B0F85A10491E0904090CA0F85A10A4D1FC
:1022D00001680A6822F490720A6001688A6822F034
:1022E00001028A6080F86A5000F0ACF895E7194066
:1022F0001180416D891C4165E2E72068806810F01B
:10230000400F29D02068016821F490710160206895
:10231000816821F00101816084F86A502068816839
:1023200011F0400F14D0816800E01BE021F0400163
:102330008160606E60B12D490165606EFEF798F8AE
:10234000002808BF70BD606E016DBDE87040084791
:102350002046FFF704FF70BD2046FFF700FF002076
:10236000E06670BD10F0800F18BF12F0800F2DD006
:1023700094F86900212818BF70BDB4F8520098B1D4
:10238000A068B0F5805F04BF20690028E06C15D01C
:10239000411CE16421680078C1F82800B4F85200BB
:1023A000401EA4F8520070BD086820F0800008604C
:1023B0002068016841F04001016070BD0088C0F3F1
:1023C00008008862E06C801CE064E7E710F0400FD2
:1023D00014BF12F0400F70BD0A68204622F0400280
:1023E0000A6084F8695000F0B5F870BD73380008D1
:1023F0004DF804ED006887B0A0F18041B1F5984137
:102400001CBF07B05DF804FB0C48016841F40021D3
:1024100001600068122101224FF0080C00F4002036
:10242000059003234FF400508DE80F1004486946CF
:10243000FEF73CF807B05DF804FB000040380240AE
:10244000001C0240704700002DE9F84F044690F848
:1024500069001D4617460E46202878D1002E12BF6F
:10246000002F0120BDE8F88F94F8680001286ED095
:10247000012084F8680021214FF00009C4F86C9015
:1024800084F86910FEF740F98046A4F85270B4F859
:1024900052004FF0200AA4F8507000283ED000BF30
:1024A000B4F85200401EA4F8520020688027C0698A
:1024B00037EA000022D000BFB5F1FF3F19D02DB19F
:1024C000FEF722F9A0EB0801A94212D320680168A7
:1024D00021F4D07101602068816821F001018160E0
:1024E00084F869A084F86AA0032084F86890BDE8A5
:1024F000F88F2068C06937EA0000DDD1A068B0F528
:10250000805F04BF206900281AD0206816F8011BDC
:10251000C0F82810B4F852000028C1D10022434668
:1025200040212046009501F0FFFA002811BF03204A
:1025300084F869A084F868900020BDE8F88F06E070
:10254000216836F8020BC0F308008862E2E7022037
:10255000BDE8F88F7047FEE72DE9F0411A480124E5
:10256000184D102688B04FF0000C0822056002219B
:10257000C0E901C4C0E9032640274761CD024FF4FA
:10258000C078C0E9068C06234FF0040C8C020E03C1
:102590008662C0E908450091CDE90123CDE904C177
:1025A000039306916946FFF7D7FA002804BF08B0E5
:1025B000BDE8F081502105A001F0F2FA08B0BDE8B5
:1025C000F0810000400100A0080100202E2E2F53B2
:1025D00072632F666D632E63000000002DE9F04FDB
:1025E0007B4887B0016841F010010160016801F08B
:1025F00010010591016841F480710160016801F4E6
:1026000080710591016841F020010160016801F0CD
:1026100020010591016841F080010160016801F02D
:1026200080010591016841F004010160016801F039
:1026300004010591016841F001010160016801F0A8
:1026400001010591016841F400710160016801F424
:1026500000710591016841F040010160016801F0DD
:1026600040010591016841F002010160016801F03B
:1026700002010591016841F0080101600068012232
:10268000544F542100F0080005903846FEF736F804
:10269000DFF84481002241F6F3714046FEF72EF840
:1026A000DFF83891002241F6FF714846FEF726F820
:1026B000DFF82CA1002241F6FF715046FEF71EF80C
:1026C000DFF820B1002241F6FF715846FEF716F8F8
:1026D000454800224FF48041FEF710F8012242489D
:1026E000D103FEF70BF8414800224FF47871FEF752
:1026F00005F801256946032654200024CDE900058C
:10270000CDE902463846FDF7D1FE28020090CDE91A
:102710000154694640460394FDF7C8FE41F6F37044
:102720006946CDE90005CDE902464046FDF7BEFE0B
:1027300014206946CDE90005CDE902463846FDF78B
:10274000B5FE4FF44048CDF8008003966946264810
:10275000CDE90154FDF7AAFE41F6FF7700970396F5
:102760006946CDE901544846FDF7A0FE0097694649
:1027700003965046CDE90154FDF798FE009769464F
:1027800003965846CDE90154FDF790FECDF8008040
:10279000694603961448CDE90154FDF787FE4FF4CE
:1027A00078706946CDE900051048CDE90246FDF78D
:1027B0007DFE1020FDF7EAFF2020FDF7E7FF402017
:1027C000FDF7E4FF8020FDF7E1FF07B0BDE8F08FE3
:1027D0003038024000100240002002400008024051
:1027E0000000024000240240001C0240000402409D
:1027F0000E48002170B54FF440720B4BC0E9052123
:10280000C161022408254FF01A0C1026016280E8ED
:102810007810FEF7FFF8002808BF70BD422104A021
:10282000BDE8704001F0BCB9001000A0BC00002061
:102830002E2E2F5372632F717561647370692E632E
:10284000000000001148002110B50F4C4FF4E06C5F
:102850000223C0E9004103610122C0E9021C0724F0
:10286000C0E9052101624162C0E90A1401634163C4
:10287000FFF78EFA002808BF10BD472104A0BDE86D
:10288000104001F08DB90000003001407C010020B3
:102890002E2E2F5372632F7370692E630000000079
:1028A0001148002110B50F4C4FF4E06C0223C0E931
:1028B000004103610122C0E9021C0724C0E905218F
:1028C00001624162C0E90A1401634163FFF760FAE3
:1028D000002808BF10BD5E2104A0BDE8104001F033
:1028E0005FB9000000380040E00100202E2E2F5379
:1028F00072632F7370692E63000000000D48802101
:1029000070B50B4A00244FF4807C42F62F2341F22D
:102910008835816180E83C10FFF728FB002808BF5C
:1029200070BD3D2104A0BDE8704001F039B9000040
:10293000002000403C0100202E2E2F5372632F7484
:10294000696D2E6300000000114808220F4B4FF400
:10295000612C10B5002103602023C0F804C04FF49F
:10296000005C8160C160C0E904128161C0F83CC0B4
:10297000C161C0E90813FDF7CDFE002808BF10BDF6
:10298000442104A0BDE8104001F00AB9004C004009
:102990004C0000202E2E2F5372632F7573617274BA
:1029A0002E630000FEE7FEF7BFBE70472DE9F0473B
:1029B0001C4F0024DFF870A088B06FF07C494FF006
:1029C000EA082646397805200123002906AD19BFFB
:1029D0004FF440710A044FF480710A04CDF814805A
:1029E000CDE9002300230294CDE903451A4600F007
:1029F0009DFA40B9DAF800002946046141F28832B4
:102A00000948FEF7ABF89DF8180010F0010004BF6C
:102A100008B0BDE8F087761CB145D3D808B00520D2
:102A2000BDE8F08735000020BC0000202DE9F00152
:102A30004B6A002B18BFB2F1406F05D0D0F800C030
:102A40008B6A5B1ECCF810308B69002B7AD0D1F8E2
:102A500020C0BCF1000F4FD00368D1F808C0C3F804
:102A60001CC0D1F82CC0CB6953B3D1E90C564F6AC6
:102A70008C8A4CEA05053E432E430D6A46EA84469D
:102A8000D1E9034C46EA0C0C4CEA0505D1F818C014
:102A90002C430D68234343EA0C0C03684CEA050CF5
:102AA000B2F1406F4CEA020CC3F814C004BFBDE899
:102AB000F0017047496800688161BDE8F001704726
:102AC000D1E90C544E6A8B8A4CEA050C44EA06059F
:102AD0000C694CEA0505D1F820C045EA834300683B
:102AE00023438C69096843EA0C03234319431143C8
:102AF0004161BDE8F0017047D1F81CC0BCF1000F86
:102B000021D0D1E90B45D1F824804E6B8F8A2C431C
:102B100046EA08052C43CD6844EA874425430C68FF
:102B200045EA0C0C4CEA030C03684CEA040CB2F1C5
:102B3000406F4CEA020CC3F814C004BFBDE8F001BA
:102B40007047B7E717E0D1F82CC0D1E90C464F6ABF
:102B50008D8A4CEA040C46EA070400684CEA040C2F
:102B600009684CEA854C4CEA03031943114341615F
:102B7000BDE8F00170470B6AF3B30368D1F808C0F1
:102B8000C3F81CC0CB6913B3D1E90B454F6A4E6B38
:102B9000B1F814C025433E432E430D6A46EA8C46E5
:102BA000D1E903C4344325438C6945EA0C0C4CEA53
:102BB000030C03684CEA040CB2F1406F4CEA020CBF
:102BC000C3F814C004BFBDE8F001704772E7D1E953
:102BD0000C45D1F82CC04E6A8B8A4CEA040C354364
:102BE0000C694CEA0505D1F820C045EA83431C4333
:102BF0008B6944EA0C0100E006E0006819431143C8
:102C00004161BDE8F0017047CB69F3B1D1E90C45F2
:102C1000D1F82CC04E6A8F8A4CEA040C45EA0604AF
:102C20004CEA040CCC684CEA874C4CEA040C4CEAA5
:102C30000303D0F800C01343B2F1406FCCF8143056
:102C400004BFBDE8F001704734E74B6A002B04BFB6
:102C5000BDE8F0017047D1E90B458E8AD1F834C048
:102C6000016844EA05004CEA0303184340EA864041
:102C700010434861BDE8F0017047000030B587B0EF
:102C80000546154800248DF8184000F0C1FB00BB34
:102C900012480078002819BF4FF440718A004FF4A1
:102CA00080718A0028030094EA2301940DF1180C26
:102CB000CDE90240CDE904C320204FF4405300F099
:102CC00035F930B90448FFF771FE002804BF07B09A
:102CD00030BD012007B030BDBC0000203500002011
:102CE0002DE9F04130A0314C88B000250068012268
:102CF0000690652006A9257000F0E6F800281EBFA2
:102D0000012008B0BDE8F0819DF8181028A000F05F
:102D100049FF9DF81800FF2806D02BA000F042FFC5
:102D200008B00120BDE8F0812F208DF818008DF843
:102D30001C0061272D48012600F06AFB0028B046E0
:102D40002ED12078002819BF4FF440710A044FF4A7
:102D500080710A04EB20029507AB0395CDE904309E
:102D600000233846CDE900261A4600F0DFF8B8B94E
:102D70001E48FFF71BFE98B9AA2084F800800122A4
:102D80008DF81800652006A900F09EF89DF818102F
:102D900017A000F007FF0122852006A900F094F893
:102DA00008B00020BDE8F081AAAA0000350000208C
:102DB0005F52656756616C5B305D20697320252E1C
:102DC00032580D0A0000000051535049204E323550
:102DD0005178782043686970204572726F722020A4
:102DE0002E2E2E202E2E2E200D0A0000BC0000209C
:102DF000515350495F524541445F564F4C5F4346E3
:102E0000475F5245475F434D442032203D202030EC
:102E10007825580D0A0000002DE9F04180461A4837
:102E200086B014460D46007800281DBF4FF4407749
:102E30003E0416A04FF4807704BF3E041AA000F0B1
:102E4000B1FE00210291EA200590CDE90315CDE9FC
:102E500000640B460A463946404600F067F870B9F0
:102E6000184A601E29461268106141F288321548DE
:102E7000FDF774FE002804BF06B0BDE8F081012014
:102E800006B0BDE8F081000035000020776F726B5E
:102E9000656420696E2034206C696E6573206D6FE7
:102EA00064652E2E2E0D0A00776F726B65642069A3
:102EB0006E2031206C696E6573206D6F64652E2EF7
:102EC0002E0D0A00BC00002030B50D46154987B014
:102ED00014460978002919BF4FF440710A044FF4D1
:102EE00080710A0400234FF0EA0CCDF814C002935D
:102EF000CDE90335CDE900241A4600F017F868B98A
:102F0000094A601E29461268106141F2883206485B
:102F1000FDF724FE002804BF07B030BD012007B034
:102F200030BD000035000020BC0000202DE9F0433A
:102F30008FB04FF0000CDDE91748DDE91A56DDF8D7
:102F40005890199FCDF82CC0CDF830C0CDE90612AD
:102F5000CDF834C041F28832CDF814806946CDE90D
:102F60000007CDF820C00E48CDF824900393FDF75C
:102F700007FD60B9EB2E0ED1094A601E2946126882
:102F8000106141F288320648FDF74CFE18B10FB0CF
:102F90000120BDE8F0830FB00020BDE8F083000001
:102FA000BC0000202DE9F04190B005208DF8000014
:102FB000594800F02DFA8DF800009DF80000002817
:102FC0006CD1FFF78DFE8DF800009DF80000002801
:102FD0001EBF9DF8000010B0BDE8F0814FA000F0CA
:102FE000E1FD524D0EA94FF003022878012804D0CC
:102FF0009E20FFF711FF28B150E0AF20FFF70CFF34
:1030000000284BD19DF838009DF83930484C9DF888
:103010003A200004474940EA032010434118A061C8
:103020001CBF0729082939D1012270200FA9FFF7F9
:103030004BFF002841D19DF83C004FF4807610F002
:10304000010F2FD12878344F00281ABF4FF4407059
:10305000069006960025B7200795089505950995D1
:103060000B950C950D950090384600F0D1F900288D
:1030700018BF06250DD141F2883269463846FDF762
:103080007FFC4FF0010818B93846FFF78FFC00B1FC
:1030900045468DF800509DF8000018B110B0012091
:1030A000BDE8F0814FF400400303C2100101C4E900
:1030B0000030C4E90202C4E904611F48A1698142E9
:1030C00022D12068800A2060810A1CA000F06AFDDD
:1030D000A16924A000F066FD21682AA000F062FD2D
:1030E000616832A000F05EFDA16839A000F05AFDD1
:1030F000E16842A000F056FD21694BA000F052FDAE
:10310000616953A000F04EFD5CA000F04BFD10B0D3
:103110000020BDE8F0810000BC00002071756164F2
:1031200020656E7465722E2E2E0D0A00350000206B
:1031300050080020E745DFFF21BA200051535049D5
:10314000204D5432355131474220436170616369EB
:103150007479202564204D42797465202E2E2E200E
:103160000D0A000051535049204D5432355131471A
:1031700042204944202030782558202E2E2E0D0A3A
:103180000000000051535049204D54323551314711
:103190004220466C617368546F74616C53697A6540
:1031A0002030782558202E2E2E0D0A0051535049DC
:1031B000204D5432355131474220536563746F724C
:1031C00053697A652030782558202E2E2E0D0A005E
:1031D00051535049204D54323551314742204572A8
:1031E000617365536563746F7253697A65203078D3
:1031F0002558202E2E2E0D0A000000005153504954
:10320000204D543235513147422045726173655328
:103210006563746F72734E756D62657220307825C8
:1032200058202E2E2E0D0A0051535049204D543255
:1032300035513147422050726F675061676553695D
:103240007A652030782558202E2E2E0D0A00000099
:1032500051535049204D543235513147422050721C
:103260006F6750616765734E756D62657220307867
:103270002558202E2E2E200D0A00000051535049B3
:103280005F55736572496E6974204F4B202E2E2E48
:103290000D0A0D0A000000002DE9F0410446006807
:1032A00098461546069F0E468068304018BF01209C
:1032B000A8421AD0B7F1FF3F10D02FB1FDF724FA82
:1032C000A0EB0800B84209D9042084F84100606CE2
:1032D00040F0010060640120BDE8F0812068806852
:1032E000304018BF0120A842E4D10020BDE8F081A1
:1032F0002DE9F0438BB0044600254FF00103B1F1F6
:10330000FF3F0695019518BFB1F1004F72D201F54C
:103310008070FF28D8BF00200BDD4FEAE07C00EB77
:103320001C60C0F3002000281CBF4FF4807CCDF847
:1033300018C0A1EB050C0CF5807C401C4FEAEC7624
:103340000CEB166C03EB2C2309E000BFDDF818C072
:10335000801C0CF5807C0CF5807CCDF818C0834275
:10336000F4DC0698401A079090424AD8264EEB2784
:103370008818069108902548DDE9069800F048F87D
:10338000D8B9307800281DBF4FF440718A00080476
:103390004FF4807104BF8A0008044FF44053CDE914
:1033A00000081220CDE90447CDE90259FFF7BEFD20
:1033B00018B91648FFF7FAFA18B10BB00120BDE8AA
:1033C000F083DDE90601084406900C44089900F5F5
:1033D0008070884283BF08460699401A4FF4807077
:1033E0000790089906988842C5D30BB00020BDE825
:1033F000F083FFE7069800F5807006908842F9D9BF
:10340000AFE70792B2E7000035000020BC000020C3
:103410004DF804ED0F4987B000208DF818000978A9
:10342000002914BF4FF440714FF48071EA220592D5
:1034300006AB0290CDE90303002300901A460190E9
:103440000620FFF773FD002818BF012007B05DF8C4
:1034500004FB0000350000204DF804ED85B000228B
:1034600001210846009110210191CDE902020A02D2
:1034700023486946FEF7F8FB642300220021002060
:10348000401CB0F57A7FFBD3491C6429F7D3521C4A
:103490000A2AF3D35B1E002BEFDC012002220092EC
:1034A0000021039110226946CDE90120020314484E
:1034B000FEF7DAFB0820032200920021039110227C
:1034C0006946CDE9012042020D48FEF7CDFB0121FE
:1034D0000422009210224FF40C700390CDE90121D8
:1034E0000A0307486946FEF7BFFB054840F237313B
:1034F000FEF7A8FB05B003A05DF804EB00F052BB9B
:1035000008010020736472616D20696E6974206F18
:103510006B200D0A000000000148FEF7BDBB000053
:103520007C0100200148FEF7B7BB0000E00100204D
:1035300010B5806B0021A0F84610C187FEF7ABFBE9
:1035400010BD704710B5FDF735F9BDE81040FEF726
:1035500007BD00002D4810B5B8B0016841F080519A
:103560000160006800F0805036902948016841F4FD
:103570004041016000680224082300F44040369076
:1035800001202C934FF4D87C82050104CDE92A4216
:10359000CDE92DC42F94CDE9240124A8FEF7D6F857
:1035A00000B1FEE7FDF7AEF900B1FEE74FF4A0521F
:1035B00000214FF480533593CDE933120F20CDE92C
:1035C0003104072131A8FDF721FF00B1FEE74021BA
:1035D00014914FF4007000906846FDF783FB00B132
:1035E000FEE7FEF717F8FEF71DF84FF47A71B0FB0F
:1035F000F1F0FEF7A1FC0420FEF792FC0022501E21
:103600001146FDF73DF938B010BD000040380240CA
:1036100000700040124A30B4124813680021DFF8ED
:1036200048C043F4700313600468031D0F4A44F05C
:1036300001040460CCF8001004680CF1040C24F4BC
:103640001025D40525F0807505601A600368084AC6
:1036500023F480230360CCF80010146030BC704762
:1036600088ED00E0003802400838024010300024A5
:1036700008ED00E00148FEF7ACBC00003C01002072
:10368000F0B42C4B2C4C2D4D984202682C4EDFF898
:10369000B4C018BFB0F1804F07D0A04218BFA842F5
:1036A00003D0B04218BF604503D14F6822F07002CA
:1036B0003A43984218BFB0F1804F25D0A04218BFBE
:1036C000A84221D0B04218BF60451DD0A0F180446F
:1036D000B4F5A0341CBFA0F18044B4F5A23413D0DB
:1036E000A0F18044B4F5A4341CBFA0F18044B4F52B
:1036F000C05409D0A0F18044B4F5E0541CBFA0F13F
:103700008044B4F5005403D1CC6822F440722243C3
:103710004C6922F080022243026098428A68C262A9
:103720000A68826212BF6045096901630121416133
:10373000F0BC704700000140000400400008004059
:10374000000C0040000401400148FEF709BD0000E4
:103750004C00002090F8241011F0010F06D00168F1
:10376000826A4B6823F400331A434A6090F82410AD
:1037700011F0020F06D00168C26A4B6823F480334F
:103780001A434A6090F8241011F0040F06D0016823
:10379000026B4B6823F480231A434A6090F824108C
:1037A00011F0080F06D00168426B4B6823F4004308
:1037B0001A434A6090F8241011F0100F06D00168E7
:1037C000826B8B6823F480531A438A6090F824102C
:1037D00011F0200F06D00168C26B8B6823F40053F0
:1037E0001A438A6090F8241011F0400F11D001683C
:1037F000026C4B6823F480131A434A60016CB1F5E4
:10380000801F06D10168426C4B6823F4C0031A4341
:103810004A6090F8241011F0800F08BF70470168CB
:10382000806C4A6822F4002210434860704738B523
:1038300000250446C566FCF767FF2168096811F09A
:10384000080F0DD06FF07E41034600222046009104
:103850004FF4001100F068F900281CBF032038BDA8
:10386000202084F8690084F8685084F86A000020F9
:1038700038BD10B5806B0021A0F85A10A0F8521086
:10388000FEF76DFC10BD00002DE9F041D0F81CC022
:10389000044681680068D4E904529F4B0D430768D1
:1038A000102142EA0C0C002245EA0C0C15461F4080
:1038B0009A4B47EA0C0CC0F800C02068D4F80CC042
:1038C000476827F4405747EA0C0CC0F804C020684A
:1038D000D4F818C0D4F8208087684CEA080C27F484
:1038E000306747EA0C0CC0F808C02068A0F1804699
:1038F000B6F5883615D016F54C4C1DD016F5484C4B
:1039000025D016F5444C2DD016F5404C35D0B6F5E3
:10391000806C40D016F5184C4DD016F5144C58D08C
:103920006CE01B6813F0030343D0012B63D0022B20
:103930005FD0032B61D061E01B6813F00C0356D0FD
:10394000042B58D0082B54D00C2B56D056E01B68B3
:1039500013F030034BD0102B4DD0202B49D0302BFF
:103960004BD04BE01B6813F0C00340D0402B42D03B
:10397000802B3ED0C02B40D040E01B6813F4407336
:1039800035D0B3F5807F36D0B3F5007F31D0B3F5B5
:10399000407F32D032E01B6813F4406309D0B3F5A6
:1039A000806F28D0B3F5006F23D0B3F5406F24D0DB
:1039B00024E0012122E01B6813F4405317D0B3F533
:1039C000805F18D0B3F5005F13D0B3F5405F14D01B
:1039D00014E01B6813F4404309D0B3F5804F0AD0BC
:1039E000B3F5004F05D0B3F5404F06D006E00021F7
:1039F00004E0022102E0042100E00821E369B3F5BC
:103A0000004F08D0092977D2DFE801F049556181DC
:103A10006A8181817700092938D2DFE801F0051039
:103A20001B37233737372E00FDF702FE014660684B
:103A3000490001EB5001B1FBF0F082B227E0FDF745
:103A40000FFE01466068490001EB5001B1FBF0F048
:103A500082B21CE06068324901EB5001B1FBF0F02A
:103A600082B214E0FDF714FE01466068490001EBE4
:103A70005001B1FBF0F082B209E060684FF4803190
:103A800001EB5001B1FBF0F082B200E001252168AA
:103A900022F00F00C2F342021043C86038E0FDF785
:103AA000C7FD0146D4E9002001EB5001B1FBF0F065
:103AB00080B2D0602CE0FDF7D3FD0146D4E90020B0
:103AC00001EB5001B1FBF0F080B2D06020E0616802
:103AD000144A02EB5102B2FBF1F189B2C16017E066
:103AE000FDF7D6FD0146D4E9002001EB5001B1FB02
:103AF000F0F080B2D0600BE009E061684FF4004262
:103B000002EB5102B2FBF1F189B2C16000E0012584
:103B10002846BDE8F0810000F369FFEF90380240CD
:103B20000048E8010024F4002DE9F0410446006853
:103B300098461546069F0E46C06931EA00000CBF44
:103B400001200020A84227D1B7F1FF3F1BD02FB1A1
:103B5000FCF7DAFDA0EB0800B84214D3206820215E
:103B60000022036823F4D07303602068836823F085
:103B70000103836084F8691084F86A10032084F8D4
:103B80006820BDE8F0812068C06936EA00000CBFFB
:103B900001200020A842D7D00020BDE8F081FEE738
:103BA000FEE700000FB4054B10B503A9044A0298C4
:103BB00000F048F810BC5DF814FB0000DD4400087C
:103BC000480000200A6802600B790371704781B0D9
:103BD0004FF480700090811E801E00910028FADC56
:103BE000481E009001B0704702E008C8121F08C1CB
:103BF000002AFAD170477047002001E001C1121F6E
:103C0000002AFBD17047000010B501684A6822F015
:103C100060024A600068016821F04001016003A071
:103C2000FFF7C0FF06490020087010BD5F5F746F8A
:103C30005F737069325F69646C650D0A0000000093
:103C4000140000202DE9FF4F8DB09B460F4604461F
:103C5000002606E025280BD05A460F999047641C91
:103C6000761C20780028F5D111B03046BDE8F08FE1
:103C70000025A8460122984900E0054314F8013FB9
:103C8000203B02FA03F00842F7D120782E2817D102
:103C900014F8010F45F004052A280ED06FF02F020A
:103CA0002078A0F1300109290AD808EB880102EB3D
:103CB000410100EB0108641CF2E757F8048B641C17
:103CC00020786C280DD004DC4C2812D06A2811D141
:103CD00004E074280DD07A280CD10AE045F40015D0
:103CE00007E0617845F48015814202D1641C05F536
:103CF0008015641C2278692A45D008DC002AB3D0DC
:103D0000582A69D0632A10D0642A08D13BE0702A6F
:103D100067D0732A13D0752A5CD0782A5CD01046FD
:103D20005A460F999047761CD3E017F8040B8DF88C
:103D3000000000208DF80100E946012003E057F85B
:103D4000049B4FF0FF3069074FF0000501D40AE0F3
:103D50006D1C45450DDA8542FADB19F8051000297E
:103D6000F6D106E06D1C8542FCDB19F80510002930
:103D7000F8D12E4404E019F8010B5A460F999047E8
:103D80006D1EF8D2A5E00A200021CDE90801C5F397
:103D9000025002280DD001CFC117031E71F100039C
:103DA0000DDA4FF0000CD0EB0C006CEB01012D2371
:103DB00008E0FF1D27F00707F7E80201EDE72B05F4
:103DC00004D52B238DF8283001233BE0EB0739D0B5
:103DD0002023F7E70A2000E010200021CDE90801A8
:103DE00007E01020002145F00405CDE908014FF05F
:103DF0000808C5F3025002280FD001CF00214FF070
:103E0000000A2B071FD5702A0DD0DDE908C38CF0FE
:103E1000100C5CEA030C0CD015E0FF1D27F007071F
:103E2000F7E80201EBE740228DF828204FF0010A65
:103E30000BE050EA010306D030238DF828308DF8CE
:103E4000292002239A46582A04D024A20DF12009E1
:103E50000B9209E026A2F9E7DDE90823FCF7FAF95D
:103E60000B9B9B5C09F8013D50EA0102F4D1ADEBDC
:103E7000090020300890680701D44FF00108089924
:103E8000884502DDA8EB010000E000208046002507
:103E900006E00AA85A46405D0F9990476D1C761CB3
:103EA0005545F6DB04E030205A460F999047761CC2
:103EB000B8F10001A8F10108F5DC05E019F8010BE3
:103EC0005A460F999047761C0899481E0890002979
:103ED000F4DC641CC5E600000928010030313233EF
:103EE0003435363738396162636465660000000036
:103EF0003031323334353637383941424344454620
:103F0000000000002DE9F04F634899B00DF134082E
:103F100090E8FE1088E8FE10016A0DF10408159182
:103F200000F1240191E8FE1088E8FE10406C099031
:103F30005AA0FFF737FEDFF898A10027DFF8949129
:103F4000DFF894B10DA801A9644E4FF0040C50F8AD
:103F50002720301F51F82730A6F10801BCF1010CD1
:103F60008A60836041F8102F40F8103FF6D1D6E9FF
:103F700000125BA0FFF716FE5E4D002405EB44081F
:103F800006EBC400414600F03FFBB8F80020214694
:103F90005948FFF707FE601CC4B2082CEED32888EE
:103FA000C0F30C01CAF814102020C9F80000FFF774
:103FB0000EFE4FF40010C9F800006888C0F30C0131
:103FC000CAF814104020C9F80000FFF700FE4FF4B3
:103FD0008000C9F80000A888C0F30C01CAF81410CA
:103FE0008020C9F80000FFF7F2FD4FF40000C9F887
:103FF0000000E888C0F30C01CAF814104FF4807078
:10400000C9F80000FFF7E3FD4FF08070C9F8000029
:104010002889C0F30C01CAF814104FF40070C9F8D5
:104020000000FFF7D4FD4FF00070C9F800003349DD
:10403000688910F0040FC0F30C024A6114BF042118
:104040004FF48021CBF8181010F0080F14BF102186
:104050004FF48011CBF81810C0F30C012848FFF77B
:10406000A1FD2848A989C1F30C0101602648E9890E
:10407000C1F30C0101602548FFF794FD4FF4FA707D
:10408000FCF708FA7F1C092FFFF45CAF20A0FFF7B4
:1040900089FD19B0BDE8F08FA84D000873746172F6
:1040A000742073656C6620746573742D2D2D2D2D11
:1040B0002D2D2D2D2D2D2D2D2D2D2D2D2D2D2D2D30
:1040C0002D2D2D2D2D2D2D2D2D2D2D0D0A000000EA
:1040D00000000240180402400010024010080020B6
:1040E00061206973203A25642C70206973203A2579
:1040F000640D0A0000080020E0450008002002408E
:10410000E84C00081424024014080240904C0008B7
:10411000656E642073656C6620746573742D2D2D37
:104120002D2D2D2D2D2D2D2D2D2D2D2D2D2D2D2DBF
:104130002D2D2D2D2D2D2D2D2D2D2D2D2D0D0A001F
:104140002DE9F041574F38688078A1280BD0A2287C
:104150002CD0A32877D0A42800F09F80BDE8F041A0
:1041600051A0FFF71FBD544D002454A0FFF71AFDC6
:10417000386840224068411D2846FCF759F800BFC6
:1041800055F8042B51A02146FFF70CFD55F8042BE0
:1041900052A02146FFF706FD601C84B2082CEFD325
:1041A00000F004FABDE8F04100F004BD4FA0FFF7B5
:1041B000F9FC524D396828684968FFF703FD286803
:1041C000007900F00F06040931464DA02246FFF7A2
:1041D000E9FC4E48A6420CD23968C6EB061200EB49
:1041E000C2000A884B68BDE8F04103F10501FCF705
:1041F0001FB818BFBDE8F081C6EB0612396800EBA6
:10420000C2004B680A8803F10501FCF711F8286821
:10421000C378012B0AD0002B18BFBDE8F08181784C
:104220004078BDE8F041394A00F0FCB88278417826
:1042300037A0FFF7B7FC2868344A81784078BDE89A
:10424000F04100F093B83DA0FFF7ACFC1A4D0024FC
:104250001AA0FFF7A7FC386840224068411D284695
:10426000FBF7E6FF55F8042B38A02146FFF79AFC30
:10427000601C84B2102CF5D300F098F900F09AFC81
:10428000354801684A6842F060024A600068016887
:1042900041F040010160BDE8F081BDE8F0412FA090
:1042A000FFF780BC200000206D7367207479706573
:1042B000206572720D0A0000100800205F5F6861BF
:1042C0006E646C655F706C61790D0A0061252E3239
:1042D000643A252E366409090000000070252E324C
:1042E000643A252E36640D0A000000005F5F6861A5
:1042F0006E646C655F7461620D0A00002C00002022
:104300002825642F2564290D0A0000005003002091
:10431000777269746520616D706C6974756465206D
:10432000746F20666C6173682C663A256463683A22
:1043300025642C7479706525640D0A005F5F6861DF
:104340006E646C655F6374726C0D0A00252E3264B6
:104350003A252E38580D0A00E00100205F5F6861A1
:104360006E646C655F726561640D0A0070B5062845
:10437000164698BF072905D8144A02EB401050F89A
:10438000214004E01248FFF70DFC4FF0FF3411A06C
:104390002146FFF707FC200BFEF770FC050005D057
:1043A00012A02146FFF7FEFB284670BD4FF4C072F5
:1043B00021463046FEF79CFF050008BF70BD214630
:1043C00010A0FFF7EFFB284670BD0000F04D00087D
:1043D0009845000877726974652061646472206989
:1043E0007320252E37580D0A000000007365637492
:1043F0006F72202564206572617365206572726F2B
:10440000720D0A00777269746520616D706C697451
:1044100075646520252E3758206572726F720D0AFB
:104420000000000070B50628164698BF072905D879
:10443000144A02EB401050F8214004E01248FFF704
:10444000B1FB4FF0FF3411A02146FFF7ABFB200B6F
:10445000FEF714FC050005D012A02146FFF7A2FBD1
:10446000284670BDC022304644F48051FEF740FF1C
:10447000050008BF70BD214610A0FFF793FB28463A
:1044800070BD0000F04D000898450008777269740F
:1044900065206164647220697320252E37580D0AE7
:1044A00000000000736563746F72202564206572DC
:1044B000617365206572726F720D0A00777269749C
:1044C0006520616D706C697475646520252E3758A0
:1044D000206572726F720D0A0000000010B504466C
:1044E000054801224FF4FA73014604700348FDF7B2
:1044F000ABFF204610BD0000100000204C00002043
:1045000000200146A0F180421160491C00F5804066
:10451000B0F1007FF6D34FF040400D4B006803E050
:10452000A1F18040006829B9D3F800C04FF4804160
:104530000246604682423CBF01F58041B1F1007FF6
:10454000EED3801A401C0004010B02A0FFF72ABB27
:10455000004000C0534452414D2043617061636983
:1045600074793A25644B422E2E2E0D0A000000006D
:10457000062810B598BF072905D8064A02EB401057
:1045800050F8210010BD04A0FFF70CFB4FF0FF30E6
:1045900010BD0000F04D000867657420666C617303
:1045A00068206572726F720D0A0000002DE9F041FB
:1045B0000A4E002406F1100706EB440507EBC40081
:1045C000294600F021F82A8805A02146FFF7EAFADB
:1045D000601CC4B2082CEFD3BDE8F08100080020B5
:1045E0006E6F7720675F6770696F5F6374726C5F6F
:1045F0007461626C655B25645D20697320252E34CF
:1046000058200D0A00000000D0E9002347F60C3CBA
:1046100062454FF4FC7003D3A2EB0C0241F2F81098
:10462000B2F57A5F24BF40F00100A2F57A52B2F5EC
:10463000FA5F24BF40F40060A2F5FA52B2F57A6F37
:1046400024BF40F40070A2F57A62B2F5FA6F24BF7D
:1046500040F00400A2F5FA62B2F57A7F24BF40F47C
:104660008060A2F57A72B2F5FA7F28BF40F00200AE
:10467000144A934202D39B1A20F48070124A934248
:1046800002D39B1A20F008004AF6C872934202D364
:104690009B1A20F0800045F2E472934202D39B1AE9
:1046A00020F0100042F6F232934202D39B1A20F01F
:1046B000200041F2F952934228BF20F040000880C8
:1046C0007047000020BF0200905F0100BFF34F8FD2
:1046D000BFF36F8F414900203F4E0860316841F4BD
:1046E00000313160BFF34F8FBFF36F8F3C490860DB
:1046F000BFF34F8F081F3B4943F6FF750068C0F3B7
:104700004E3CC0F3C90405EA4C12204642EA8073CD
:104710000B60401EFAD2BCF1010CF4D2BFF34F8FF4
:10472000306840F480303060BFF34F8FBFF36F8F3D
:10473000FCF748F8FEF70EFFFDF750FFFEF7B0F864
:10474000FDF70AFFFEF700F9FEF7D8F8FEF750F87C
:10475000FEF778F8002202212420FCF791F82420AB
:10476000FCF782F8002206213420FCF789F8342077
:10477000FCF77AF8002204212320FCF781F823209B
:10478000FCF772F800220E212D20FCF779F82D207D
:10479000FCF76AF81448FEF75FFEFFF7B1FEFEF77C
:1047A00001FC002804BF11A0FFF7FCF913A0FFF7DC
:1047B000F9F900F02FF800F0A1FAFFF7A3FB00F0E1
:1047C00061F81249124800F0EDF84FF4487000BF4C
:1047D000FBF760FE0A20FBE714ED00E050EF00E07D
:1047E00084ED00E060EF00E008010020666C61737A
:1047F0006820696E6974206F6B0D0A0073797320ED
:10480000696E6974206F6B0D0A000000014A000890
:10481000E00100202DE9F04111A0FFF7C3F9154F89
:104820000024002507EB4416062C9CBF072D56F8E4
:10483000251004D91048FFF7B5F94FF0FF310FA04C
:10484000FFF7B0F9681CC5B2082DEDD308A0FFF73B
:10485000A9F9601CC4B2072CE3D3BDE8F0810000C5
:10486000616C6C2061646472657373206172653A77
:104870000D0A0000F04D000898450008252E375815
:104880002000000070B5244E2020244C4FF4FC750D
:1048900075612060FFF79BF9300120604021756150
:1048A0002160FFF794F9700120608021756121601B
:1048B000FFF78DF9B0012060C11375612160FFF72A
:1048C00086F9F0012060C11375612160FFF77FF95F
:1048D000134A30022060134913485561498911F089
:1048E000040F14BF04224FF48022826111F0080FDC
:1048F00014BF10214FF4801181610C484FF4FC71FA
:10490000FFF750F90A480B4905600D600AA0BDE8A1
:104910007040FFF747B90000000002401804024051
:1049200000200240000800200010024090490008CA
:104930001424024014080240616C6C206374726C91
:10494000206172652072657365740D0A00000000B5
:104950004FF4FC720B4B0C490C485A61498911F019
:10496000040F14BF04224FF48022826111F0080F5B
:1049700014BF10214FF4801181614FF4FC7104A029
:10498000FFF710B90020024000080020001002408C
:104990004750494F4920726573657420252E34585D
:1049A0000D0A000070B50D4604460EA0FFF7FAF898
:1049B0000022E5640521A4F846200120A4F8441053
:1049C0000D49216410390D4A0870C10720684368F9
:1049D00043F0600343602068036843F040030360D2
:1049E000116070BD636F6E666967207370693220F5
:1049F000696E740D0A00000024000020181C02409B
:104A00002DE9F05F5F4D00265F4F044605F1100A67
:104A10004FF001084FF005092978002944D05B4880
:104A2000012973D0022918BFBDE8F09FB4F84610E1
:104A3000B4F84420914209D20078216C4A1C2264C7
:104A40000870B4F84600401CA4F84600B4F84600CC
:104A5000B4F84410884218BFBDE8F09F4FF40041FD
:104A60004B4801602068416821F060014160206886
:104A7000016821F0400101604648FFF793F82E706D
:104A80004FF0000BB4F84400002820D917F80B10A1
:104A900041A0FFF787F8B4F844000BF1010101F0E1
:104AA000FF0B5845F2D812E0B4F844004FF0000B69
:104AB00000280CD917F80B1037A0FFF773F8B4F8DB
:104AC00044000BF1010101F0FF0B5845F2D8FFF74C
:104AD00037FB2F494FF00040086031A0FFF762F824
:104AE000A4F846603248A4F84490C4F840A085F881
:104AF000008001684A6842F060024A60006801680C
:104B000041F040010160BDE8F09FFFE7B4F84610B6
:104B1000B4F84420914209D20078216C4A1C2264E6
:104B20000870B4F84600401CA4F84600B4F84600EB
:104B3000052818BFBDE8F09FA8680288A2F5B44117
:104B40005A3909D0A4F84660A4F84490C4F840A0AB
:104B500085F80080BDE8F09F4188E868FF29018062
:104B600084BFFF2101806968097981700221476053
:104B7000A4F846600088401DA4F84400276429700A
:104B8000BDE8F09F14000020440200200C380040D3
:104B9000181C02402C3C000820252E325800000032
:104BA000726561647920746F20726561640D0A001A
:104BB000E001002070B52E4C20202E4E2E4D218875
:104BC000C1F30C0171612860FFF701F83101296020
:104BD00040206188C1F30C0171612860FEF7F7FF86
:104BE000710129608020A188C1F30C0171612860E6
:104BF000FEF7EDFFB1012960C813E188C1F30C0194
:104C000071612860FEF7E3FFF1012960C813218973
:104C1000C1F30C0171612860FEF7D9FF174A300219
:104C200017492860608910F0040FC0F30C0353612A
:104C300014BF04224FF480228A6110F0080F14BFC1
:104C400010224FF480128A61C0F30C010D48FEF768
:104C5000A9FF0D49A2890D48C2F30C020A60E1893F
:104C6000C1F30C010160BDE8704009A0FEF79ABFD6
:104C7000000800200000024018040240002002400A
:104C800000100240E84C00081424024014080240BE
:104C9000616C6C206374726C206172652075706445
:104CA0006174650D0A0000000C490D4A49890D48E0
:104CB00011F0040FC1F30C03536114BF04224FF42D
:104CC0008022826111F0080F14BF10224FF480126D
:104CD000826105A0C1F30C01FEF764BF000800204B
:104CE00000200240001002404750494F49206F7594
:104CF0007470757420252E34580D0A002DE9F003C8
:104D0000DFF884800022214841F2F95508F5405926
:104D10004FEA0204002104EB440608EB462300BFDF
:104D2000876801EB410C43F82C70876803EB8C0C0F
:104D3000FF1CCCE90172D0F808C0491C80290CF591
:104D4000FA7CC0F808C0EBD3002109EB062300BFB2
:104D5000C76801EB410C491C03EB8C0643F82C702F
:104D6000D0F80CC040290CF1030CC6E901C2D0F800
:104D70000CC0AC44C0F80CC0EAD3641C082CC9D3E6
:104D8000BDE8F003704700006C18002038000020D8
:104D900000000000000000000102030406070809EB
:104DA0000000000001020304803E0000F401000046
:104DB000D00700000C7B0000A00F0000E8030000FB
:104DC000401F00000000000000000000905F010094
:104DD000E4570000F22B0000F9150000C8AF0000F6
:104DE00020BF0200000000000000000000000000E2
:104DF00000000000008000000000010000800100B1
:104E00000000020000800200000003000080030098
:104E10000000040000800400000005000080050080
:104E20000000060000800600000007000080070068
:104E30000000080000800800000009000080090050
:104E400000000A0000800A0000000B0000800B0038
:104E500000000C0000800C0000000D0000800D0020
:104E600000000E0000800E0000000F0000800F0008
:104E700000001000008010000000110000801100F0
:104E800000001200008012000000130000801300D8
:104E900000001400008014000000150000801500C0
:104EA00000001600008016000000170000801700A8
:104EB0000000180000801800000019000080190090
:104EC00000001A0000801A0000001B0000801B0078
:104ED000F04E0008000000204C000000E83B0008F5
:104EE0003C4F00084C00002024680000F83B0008FC
:104EF0000000000000000000000000000024F4009A
:104F00000000000000000000240000202400002019
:104F100044030020000000000000000030000020DA
:104F200000000000000000006C1800206C48002009
:0C4F300000000000000000000000000075
:04000005080001F9F5
:00000001FF
